:020000040800F2
:10000000200C0020290200080D2D00086D26000894
:10001000892A000829040008FD3B000800000000B0
:10002000000000000000000000000000C92D0008D2
:100030002D040008000000007D2D0008212E00087E
:10004000430200084302000843020008430200087C
:10005000430200084302000843020008430200086C
:10006000430200084302000843020008430200085C
:10007000430200084302000843020008430200084C
:10008000430200084302000843020008430200083C
:10009000430200084302000843020008430200082C
:1000A00043020008FD2E0008430200084302000836
:1000B000430200084302000843020008430200080C
:1000C00043020008430200084302000843020008FC
:1000D00043020008430200084302000843020008EC
:1000E00043020008430200084302000843020008DC
:1000F00043020008430200084302000843020008CC
:1001000043020008430200084302000843020008BB
:1001100043020008430200084302000843020008AB
:10012000430200084302000843020008430200089B
:10013000430200084302000843020008430200088B
:10014000430200084302000843020008430200087B
:10015000430200084302000843020008430200086B
:10016000430200084302000843020008430200085B
:100170004302000843020008430200080000000098
:10018000430200084302000800F002F800F03CF8C7
:100190000AA090E8000C82448344AAF10107DA45E2
:1001A00001D100F031F8AFF2090EBAE80F0013F0F8
:1001B000010F18BFFB1A43F0010318476C3B000006
:1001C0008C3B0000103A24BF78C878C1FAD8520797
:1001D00024BF30C830C144BF04680C6070470000C1
:1001E0000023002400250026103A28BF78C1FBD840
:1001F000520728BF30C148BF0B6070471FB503F0DE
:1002000079FD1FBD10B510BD00F0D4F81146FFF701
:10021000F5FF03F055FD00F0F2F803B4FFF7F2FF2D
:1002200003BC00F0F9F8000009488047094800477E
:10023000FEE7FEE7FEE7FEE7FEE7FEE7FEE7FEE796
:10024000FEE7FEE704480549054A064B70470000F3
:10025000E92E00088901000820060020200C00205B
:10026000200800202008002053EA020C00F06980DA
:100270002DE9F04B4FF00006002B1FBFB3FA83F5BA
:1002800003FA05F424FA05F65E4012BF1643B2FAEB
:1002900082F502FA05F4C5F120051EBF22FA05FC1D
:1002A00044EA0C04203556EA044C4FEA144418BFC3
:1002B000641C4FF000084FF00009904271EB030CF2
:1002C00039D3002919BFB1FA81F701FA07F6B0FA5C
:1002D00080F700FA07F6C7F120071EBF20FA07FCD7
:1002E00046EA0C062037B6FBF4FCA7EB0507103FE7
:1002F00007F01F0BCBF120062CFA06F60CFA0BFBCD
:1003000044BFB3460026202FA4BF5E464FF0000B2B
:100310005BEA060C08BF4FF0010B19EB0B0948EB29
:100320000608ABFB027C06FB02CC0BFB03CCC01B1C
:1003300071EB0C01C1E70B46024641464846BDE859
:10034000F08B13B5084318BF4FF0FF300146AFF3F1
:100350000080BDE81C407047002800DA404270472A
:100360004FF0000200B5134694469646203922BF4E
:10037000A0E80C50A0E80C50B1F12001BFF4F7AF99
:10038000090728BFA0E80C5048BF0CC05DF804EB7B
:10039000890028BF40F8042B08BF704748BF20F8E9
:1003A000022B11F0804F18BF00F8012B70477047E7
:1003B00070477047754600F02BF8AE460500694659
:1003C000534620F00700854618B020B5FFF73AFFE6
:1003D000BDE820404FF000064FF000074FF0000846
:1003E0004FF0000BAC46ACE8C009ACE8C009ACE883
:1003F000C009ACE8C00921F007018D46704710B56F
:100400000446AFF300802046BDE81040FFF705BF6B
:10041000004870471000002001491820ABBEFEE7DD
:100420002600020070470000FFE7FEE7704700006B
:1004300081B0EFF3108072B60090FFE7FEE7000096
:1004400080B584B0039000F011FA029003980190F7
:100450000198013048B1FFE740F20400C2F2000009
:100460000178019808440190FFE7FFE700F0FEF9EA
:100470000299401A0199884201D2FFE7F6E704B0D9
:1004800080BD00008EB00D900C9100200A90099064
:1004900008900B90FFE70B980F2800F2CC81FFE744
:1004A0000B99012088400A900C9800680A9908402E
:1004B000099009980A99884240F0B881FFE70C98A2
:1004C000406800F00300012807D0FFE70C9840685F
:1004D00000F0030002282FD1FFE70D9880680890F4
:1004E0000B984100032000FA01F108988843089016
:1004F0000C98C0680B99490000FA01F1089808436C
:10050000089008980D9988600D98406808900B999C
:10051000012000FA01F10898884308900C9840687F
:10052000C0F300100B9900FA01F1089808430890F5
:1005300008980D994860FFE70C98406800F00300A8
:10054000032818D0FFE70D98C06808900B98410069
:10055000032000FA01F10898884308900C988068FD
:100560000B99490000FA01F108980843089008988F
:100570000D99C860FFE70C98406800F0030002285E
:1005800026D1FFE70D980B996FF0030202EA5101A3
:100590000844006A08900B9800F0070081000F20C3
:1005A00000FA01F10898884308900C9800690B99AB
:1005B00001F00701890000FA01F10898084308904A
:1005C00008980D990B9B02EA530211440862FFE759
:1005D0000D98006808900B984100032000FA01F183
:1005E0000898884308900C98406800F003000B9925
:1005F000490000FA01F108980843089008980D99FD
:1006000008600C9880798007002800F00E81FFE7D1
:10061000FFE70020079043F64400C4F2020001689F
:1006200041F480410160006800F480400790079821
:10063000FFE70B9820F0030043F60801C4F2010124
:10064000405808900B9800F0030081000F2000FA3A
:1006500001F10898884308900D980021C4F2020126
:10066000884203D1FFE7002006905EE00D9840F23B
:100670000041C4F20201884203D1FFE70120059046
:1006800050E00D9840F60001C4F20201884203D107
:10069000FFE70220049042E00D9840F60041C4F2CA
:1006A0000201884203D1FFE70320039034E00D9854
:1006B00041F20001C4F20201884203D1FFE70420A5
:1006C000029026E00D9841F20041C4F202018842F6
:1006D00003D1FFE70520019018E00D9841F60001D5
:1006E000C4F20201884203D1FFE7062000900AE02D
:1006F0000D9941F60042C4F202020820914208BF5F
:1007000007200090FFE700980190FFE70198029012
:10071000FFE702980390FFE703980490FFE704982F
:100720000590FFE705980690FFE70698C0B20B9981
:1007300001F00301890000FA01F1089808430890CC
:1007400008980B9921F0030143F60802C4F2010254
:10075000885043F60040C4F20100006808900999EF
:100760000898884308900C988079C00728B1FFE763
:100770000999089808430890FFE7089843F6004154
:10078000C4F20101086043F60440C4F201000068AD
:10079000089009990898884308900C9880798007F8
:1007A000002805D5FFE70999089808430890FFE756
:1007B000089843F60441C4F20101086043F608407A
:1007C000C4F20100006808900999089888430890CD
:1007D0000C988079C006002805D5FFE7099908988C
:1007E00008430890FFE7089843F60841C4F2010166
:1007F000086043F60C40C4F20100006808900999B3
:100800000898884308900C9880798006002805D5C0
:10081000FFE70999089808430890FFE7089843F60E
:100820000C41C4F201010860FFE7FFE7FFE70B9806
:1008300001300B902FE60EB07047000082B001909F
:10084000ADF802108DF801209DF8010028B1FFE7F6
:10085000BDF802000199886105E0BDF802000004BE
:1008600001998861FFE702B07047000040F218600C
:10087000C2F200000068704740F20400C2F20000BB
:10088000027840F21861C2F2000108681044086062
:100890007047000080B543F60041C4F202010868C9
:1008A00040F400700860086840F4806008600868E0
:1008B00040F480700860032000F08AF80F2000F0F8
:1008C00005F800F03BF8002080BD000080B582B044
:1008D000009040F20000C2F20000006840F2040103
:1008E000C2F200010A784FF47A71B1FBF2F1B0FB69
:1008F000F1F000F04FFF20B1FFE701208DF8070075
:1009000018E000980F280DD8FFE700994FF0FF304E
:10091000002200F043F8009840F20801C2F2000102
:10092000086003E001208DF8070003E000208DF847
:100930000700FFE79DF8070002B080BD82B0FFE727
:100940000020019043F64400C4F20200016841F423
:1009500080410160006800F4804001900198FFE749
:10096000FFE70020009043F64000C4F20200016857
:1009700041F080510160006800F0805000900098C4
:10098000FFE702B07047000080B582B08DF8070025
:100990009DF9070003F034F902B080BD80B586B040
:1009A0008DF81700049103920020029003F040F9A3
:1009B00002909DF91700019002980499039A02F0A1
:1009C000A7F90146019803F03BF906B080BD00008D
:1009D00080B582B00190019803F054F902B080BD57
:1009E0002DE9F04F97B01590159820B9FFE7012039
:1009F0008DF85B0049E1159800681490159890F8FF
:100A0000BD0340B9FFE71599002081F8BC03159894
:100A100000F040F9FFE71599032081F8BD03149811
:100A2000C06BC005002804D4FFE7159900200861B9
:100A3000FFE71598006802F0FDFF15981090016817
:100A4000119141688268C368D0F810C04469856913
:100A5000C669076AD0F82480D0F82890D0F82CA076
:100A6000D0F830B0D0F834E068461290C0F824E0F6
:100A70001198DDF848E0CEF820B0CEF81CA0CEF8F2
:100A80001890CEF81480CEF81070CEF80C60CEF826
:100A90000850CEF80440CEF800C002F095FD40B1F9
:100AA000FFE71599022081F8BD0301208DF85B0056
:100AB000EBE01598006800210F9103F01DF80F98E6
:100AC0008DF84F00FFE79DF84F001599496888425F
:100AD00045D2FFE715989DF84F10C1EBC10100EB1F
:100AE0008101012081F83D009DF84F001599C0EB70
:100AF000C00201EB820181F83C009DF84F0015997E
:100B0000C0EBC00201EB8201A1F8420015989DF8EC
:100B10004F10C1EBC10100EB8101002081F83F00C3
:100B200015999DF84F20C2EBC20201EB8201486487
:100B300015999DF84F20C2EBC20201EB8201886437
:100B400015999DF84F20C2EBC20201EB82010865A6
:100B5000FFE79DF84F0001308DF84F00B3E700200C
:100B60008DF84F00FFE79DF84F00159949688842BE
:100B70003ED2FFE715989DF84F10C1EBC10100EB85
:100B80008101002081F8FD019DF84F10159AC1EBFD
:100B9000C10302EB830282F8FC1115999DF84F20E6
:100BA000C2EBC20201EB820181F8FF0115999DF8A9
:100BB0004F20C2EBC20201EB8201C1F80402159979
:100BC0009DF84F20C2EBC20201EB8201C1F808027E
:100BD00015999DF84F20C2EBC20201EB8201C1F8CA
:100BE0001002FFE79DF84F0001308DF84F00BAE783
:100BF00015980C9001680D9141688268C368D0F81F
:100C000010C044698569C669076AD0F82480D0F8A5
:100C10002890D0F82CA0D0F830B0D0F834E0684656
:100C20000E90C0F824E00D98DDF838E0CEF820B042
:100C3000CEF81CA0CEF81890CEF81480CEF8107024
:100C4000CEF80C60CEF80850CEF80440CEF800C0C4
:100C500002F08EFD40B1FFE71599022081F8BD0337
:100C600001208DF85B0010E0159900200B9081F8B1
:100C700038001599012081F8BD031598006802F02D
:100C800061FD0B988DF85B00FFE79DF85B0017B0E6
:100C9000BDE8F08F80B588B00790002006900590E1
:100CA00004900390029007980068B0F1A04F3ED1E5
:100CB000FFE7FFE70020019043F63000C4F2020096
:100CC000016841F001010160006800F0010001903D
:100CD0000198FFE74FF4C0500290022003900020DB
:100CE0000490032005900A2006900020C4F2020020
:100CF00002A9FFF7C7FBFFE743F63401C4F2020184
:100D0000086840F080000860FFE70020009043F68C
:100D10004400C4F20200016841F4804101600068AF
:100D200000F4804000900098FFE7FFE7FFE708B07D
:100D300080BD000080B584B002900191029820B976
:100D4000FFE701208DF80F0021E1019843F60041F3
:100D5000C4F20201096801F00701884212D9FFE7D5
:100D6000019943F60040C4F202000170006800F0EF
:100D700007000199884204D0FFE701208DF80F0099
:100D800005E1FFE702980078800700282AD5FFE7F1
:100D9000029800784007002809D5FFE743F60801CC
:100DA000C4F20201086840F4E0500860FFE70298CE
:100DB00000780007002809D5FFE743F60801C4F2D0
:100DC0000201086840F460400860FFE743F608014C
:100DD000C4F20201086820F0F000029A9268104301
:100DE0000860FFE702980078C00700286ED0FFE790
:100DF00002984068012811D1FFE743F60000C4F2D1
:100E00000200006800F400310020B0EB514F04D123
:100E1000FFE701208DF80F00B9E02CE00298406850
:100E2000022805D0FFE702984068032811D1FFE7A8
:100E300043F60000C4F20200006800F000710020D8
:100E4000B0EB516F04D1FFE701208DF80F009EE059
:100E500010E043F60000C4F20200006800F0020156
:100E60000020B0EB510F04D1FFE701208DF80F00F7
:100E70008DE0FFE7FFE743F60801C4F202010868CE
:100E800020F00300029A526810430860FFF7EEFC5E
:100E90000090FFE743F60800C4F20200006800F08B
:100EA0000C0002994968B0EB810F0ED0FFE7FFF705
:100EB000DDFC0099401A41F28931884204D3FFE7F2
:100EC00003208DF80F0062E0E4E7FFE7019843F6A6
:100ED0000041C4F20201096801F00701884212D200
:100EE000FFE7019943F60040C4F202000170006878
:100EF00000F007000199884204D0FFE701208DF837
:100F00000F0044E0FFE702980078400700280CD566
:100F1000FFE743F60801C4F20201086820F4E0503C
:100F2000029AD26810430860FFE702980078000731
:100F300000280DD5FFE743F60801C4F20201086856
:100F400020F46040029A126940EAC2000860FFE79C
:100F500000F04CF843F60801C4F202010968C9B276
:100F60000A0943F60E51C0F60001895CC84040F200
:100F70000001C2F20001086040F20800C2F2000065
:100F80000068FFF7A3FC00208DF80F00FFE79DF835
:100F90000F0004B080BD000040F20000C2F200006B
:100FA0000068704780B5FFF7F7FF43F60801C4F209
:100FB00002010968C1F3822243F61E51C0F6000106
:100FC000895CC84080BD000080B5FFF7E5FF43F6AF
:100FD0000801C4F20201096889B24A0B43F61E51A6
:100FE000C0F60001895CC84080BD000080B586B0B5
:100FF0000020059004900390029043F60800C4F28C
:101000000200006800F00C000146019140B1FFE7CA
:10101000019804280AD0FFE7019808280CD04FE077
:1010200042F20040C0F2F40002904FE047F6400068
:10103000C0F27D10029049E043F60400C4F20200C1
:10104000016801F03F01059100684002002813D5B6
:10105000FFE743F60400C4F202000068C0F3881002
:1010600047F64001C0F27D11A0FB0101059A002363
:10107000FFF7FAF8049012E043F60400C4F202000D
:101080000068C0F3881042F20041C0F2F401A0FBF6
:101090000101059A0023FFF7E7F80490FFE743F604
:1010A0000400C4F20200006800F44031022000EBAA
:1010B000D130039004980399B0FBF1F0029005E061
:1010C00042F20040C0F2F4000290FFE7029806B03E
:1010D00080BD000080B586B00490049820B9FFE779
:1010E00001208DF8170050E304980078C00700280D
:1010F00000F0A580FFE743F60800C4F20200006894
:1011000000F00C00042813D0FFE743F60800C4F2F7
:101110000200006800F00C0008281ED1FFE743F62B
:101120000400C4F2020000684002002815D5FFE761
:1011300043F60000C4F20200006800F40031002011
:10114000B0EB514F08D0FFE70498406820B9FFE7A3
:1011500001208DF8170018E370E0FFE7049840685D
:10116000B0F5803F09D1FFE743F60001C4F2020168
:10117000086840F48030086020E004984068B0F5CA
:10118000A02F0DD1FFE743F60001C4F20201086869
:1011900040F480200860086840F4803008600CE06B
:1011A00043F60001C4F20201086820F480300860B0
:1011B000086820F480200860FFE7FFE7FFE7049855
:1011C0004068E8B1FFE7FFF751FB0390FFE743F604
:1011D0000000C4F20200006800F400310020B0EB0F
:1011E000514F0CD1FFE7FFF741FB0399401A6528E7
:1011F00004D3FFE703208DF81700C6E2E7E71CE001
:10120000FFF734FB0390FFE743F60000C4F202004F
:10121000006800F400310020B0EB514F0CD0FFE724
:10122000FFF724FB0399401A652804D3FFE7032046
:101230008DF81700A9E2E7E7FFE7FFE7FFE704986B
:1012400000788007002840F19680FFE743F6080009
:10125000C4F20200006810F00C0F13D0FFE743F651
:101260000800C4F20200006800F00C0008282CD12D
:10127000FFE743F60400C4F20200006840020028C1
:1012800023D4FFE743F60000C4F20200006800F038
:1012900002010020B0EB510F09D0FFE70498C068AD
:1012A000012804D0FFE701208DF817006DE243F616
:1012B0000001C4F20201086820F0F800049A1269E3
:1012C00040EAC2000860FFE754E00498C06870B3C9
:1012D000FFE70021C4F2472101200860FFF7C6FAAA
:1012E0000390FFE743F60000C4F20200006800F03C
:1012F00002010020B0EB510F0CD1FFE7FFF7B6FA67
:101300000399401A032804D3FFE703208DF8170040
:101310003BE2E7E743F60001C4F20201086820F06F
:10132000F800049A126940EAC200086021E0002136
:10133000C4F2472100200860FFF798FA0390FFE706
:1013400043F60000C4F20200006800F00201002031
:10135000B0EB510F0CD0FFE7FFF788FA0399401A62
:10136000032804D3FFE703208DF817000DE2E7E719
:10137000FFE7FFE7FFE704980078000700284BD558
:10138000FFE70498406918B3FFE740F68061C4F2B4
:10139000472101200860FFF769FA0390FFE743F651
:1013A0007400C4F20200006800F002010020B0EBFB
:1013B000510F0CD1FFE7FFF759FA0399401A0328A0
:1013C00004D3FFE703208DF81700DEE1E7E722E012
:1013D00040F68061C4F2472100200860FFF746FA1A
:1013E0000390FFE743F67400C4F20200006800F0C7
:1013F00002010020B0EB510F0CD0FFE7FFF736FAE7
:101400000399401A032804D3FFE703208DF817003F
:10141000BBE1E7E7FFE7FFE7049800784007002813
:1014200040F1CE80FFE700208DF8070043F6400032
:10143000C4F202000068C000002815D4FFE7FFE7EF
:101440000020009043F64000C4F20200016841F021
:1014500080510160006800F0805000900098FFE724
:1014600001208DF80700FFE747F20000C4F20000FA
:101470000068C005002822D4FFE747F20001C4F24B
:101480000001086840F480700860FFF7EFF90390EE
:10149000FFE747F20000C4F200000068C005002822
:1014A0000CD4FFE7FFF7E2F90399401A032804D3AD
:1014B000FFE703208DF8170067E1EAE7FFE7FFE7A2
:1014C00004988068012809D1FFE743F67001C4F24F
:1014D0000201086840F0010008601FE0049880687D
:1014E00005280DD1FFE743F67001C4F20201086838
:1014F00040F004000860086840F0010008600CE05B
:1015000043F67001C4F20201086820F0010008608F
:10151000086820F004000860FFE7FFE7FFE7049891
:101520008068F8B1FFE7FFF7A1F90390FFE743F602
:101530007000C4F20200006800F002010020B0EB6D
:10154000510F0ED1FFE7FFF791F90399401A41F2CD
:101550008931884204D3FFE703208DF8170014E196
:10156000E5E71EE0FFF782F90390FFE743F670001E
:10157000C4F20200006800F002010020B0EB510F3D
:101580000ED0FFE7FFF772F90399401A41F2893153
:10159000884204D3FFE703208DF81700F5E0E5E764
:1015A000FFE79DF80700012809D1FFE743F6400156
:1015B000C4F20201086820F080500860FFE7FFE7EE
:1015C00004988069002800F0DC80FFE743F60800FB
:1015D000C4F20200006800F00C00082800F08580CA
:1015E000FFE70498806902285CD1FFE76021C4F21C
:1015F000472100200860FFF739F90390FFE743F621
:101600000000C4F20200006800F000710020B0EB9E
:10161000516F0CD0FFE7FFF729F90399401A03280F
:1016200004D3FFE703208DF81700AEE0E7E7049945
:10163000C869D1F820C04B6A8A6A40EA0C0040EAC7
:101640008310D2034FF6FF739A43A2F58032104302
:10165000C96A40EA016043F60401C4F2020108606D
:101660006021C4F2472101200860FFF7FFF80390D2
:10167000FFE743F60000C4F20200006800F00071CA
:101680000020B0EB516F0CD1FFE7FFF7EFF80399A3
:10169000401A032804D3FFE703208DF8170074E0F5
:1016A000E7E721E06021C4F2472100200860FFF74E
:1016B000DDF80390FFE743F60000C4F20200006883
:1016C00000F000710020B0EB516F0CD0FFE7FFF786
:1016D000CDF80399401A032804D3FFE703208DF8BF
:1016E000170052E0E7E7FFE74AE004988069012825
:1016F00004D1FFE701208DF8170046E043F604000F
:10170000C4F202000068029004988069012831D078
:10171000FFE7029800F480000499C969884229D142
:10172000FFE7029800F03F000499096A884221D13E
:10173000FFE7029847F6C07108400499496AB0EB88
:10174000811F17D1FFE7029800F440300499896A9D
:10175000C9034FF6FF729143A1F58031884209D148
:10176000FFE7029800F070600499C96AB0EB016F5E
:1017700004D0FFE701208DF8170006E0FFE7FFE740
:10178000FFE700208DF81700FFE79DF8170006B06F
:1017900080BD000080B582B00190019801F016FB79
:1017A00002B080BD81B0009001B0704781B0009060
:1017B00001B0704784B00290019100200090FFE7D3
:1017C000029890F83C00012804D1FFE702208DF830
:1017D0000F0044E00299012081F83C00FFE7FFE799
:1017E000009820F0FF000199C96808430090009814
:1017F00020F440700199896808430090009820F413
:1018000080600199496808430090009820F40060C6
:101810000199096808430090009820F480500199CC
:10182000096908430090009820F400500199496923
:1018300008430090009820F480400199C96908434A
:1018400000900098029909684864FFE70299002017
:1018500081F83C00FFE700208DF80F00FFE79DF8BE
:101860000F0004B07047000085B003900291FFE7BD
:10187000039890F83C00012804D1FFE702208DF87E
:1018800013007EE00399012081F83C00FFE7FFE7A9
:101890000399022081F83D00039800684068019098
:1018A0000398006880680090019820F07000019013
:1018B000029801680198084301900198039909680A
:1018C0004860039800680021C4F2010188423CD0BE
:1018D000FFE703980068B0F1804F36D0FFE7039828
:1018E000006840F20041C4F2000188422DD0FFE7B9
:1018F0000398006840F60001C4F20001884224D039
:10190000FFE70398006840F60041C4F200018842F6
:101910001BD0FFE70398006840F20041C4F20101C8
:10192000884212D0FFE70398006844F20001C4F235
:101930000101884209D0FFE70398006841F60001E1
:10194000C4F2000188420ED1FFE7009820F0800029
:10195000009002984168009808430090009803990D
:1019600009688860FFE70399012081F83D00FFE7DF
:101970000399002081F83C00FFE700208DF8130058
:10198000FFE79DF8130005B07047000083B0019099
:10199000019890F83D00012804D0FFE701208DF860
:1019A0000B006AE00199022081F83D00019801686E
:1019B000C86840F00100C860019800680021C4F2C6
:1019C000010188423CD0FFE701980068B0F1804FE8
:1019D00036D0FFE70198006840F20041C4F20001F0
:1019E00088422DD0FFE70198006840F60001C4F25C
:1019F0000001884224D0FFE70198006840F60041CA
:101A0000C4F2000188421BD0FFE70198006840F251
:101A10000041C4F20101884212D0FFE7019800683A
:101A200044F20001C4F20101884209D0FFE70198A5
:101A3000006841F60001C4F20001884212D1FFE7BC
:101A400001980068806800F0070000900098062860
:101A500007D0FFE701980168086840F001000860BE
:101A6000FFE706E001980168086840F0010008609F
:101A7000FFE700208DF80B00FFE79DF80B0003B097
:101A80007047000080B586B004900391049820B997
:101A9000FFE701208DF8170088E0049890F83D00DA
:101AA00040B9FFE70499002081F83C00049800F059
:101AB00081F8FFE70499022081F83D00049801684D
:101AC000886844F2070290438860049951F8040B37
:101AD00001F01CFA0498006880680290049800687D
:101AE0008069019004980068006A0090039801687A
:101AF000029808430290019840F203318843019014
:101B000003998868896940EA012101980843019096
:101B1000019840F60C418843019001984FF2F00182
:101B2000884301900399C868C96940EA0121019876
:101B30000843019003990869096A000140EA0131EC
:101B4000019808430190009820F02200009000982E
:101B500020F08800009003994868496940EA011123
:101B600000980843009002980499096888600198D9
:101B700004990968886100980499096808620499C1
:101B8000012081F84600049981F83E00049981F80B
:101B90003F00049981F84200049981F843000499B8
:101BA00081F83D0000208DF81700FFE79DF8170031
:101BB00006B080BD80B58AB00990002008900790DB
:101BC0000690059004900998006840F20041C4F224
:101BD0000001884231D1FFE7FFE70020039043F680
:101BE0004000C4F20200016841F002010160006897
:101BF00000F0020003900398FFE7FFE70020029047
:101C000043F63000C4F20200016841F001010160B6
:101C1000006800F0010002900298FFE7C0200490E5
:101C20000220059000210691079108900020C4F23F
:101C3000020004A9FEF726FC3CE00998006840F683
:101C40000001C4F20001884233D1FFE7FFE7002022
:101C5000019043F64000C4F20200016841F0040123
:101C60000160006800F0040001900198FFE7FFE7C1
:101C70000020009043F63000C4F20200016841F0F9
:101C800008010160006800F0080000900098FFE77C
:101C90004FF44050049002200590002106910791D6
:101CA000089040F60040C4F2020004A9FEF7EAFBE7
:101CB000FFE7FFE70AB080BD80B586B004900391CE
:101CC000049890F83E008DF80B00049890F83F00BF
:101CD0008DF80A00049890F842008DF809000498E5
:101CE00090F843008DF808000398B8B9FFE79DF815
:101CF0000B00012805D1FFE79DF80900012804D059
:101D0000FFE701208DF8170079E00499022081F89F
:101D10003E00049981F84200FFE742E0039804285E
:101D200017D1FFE79DF80A00012805D1FFE79DF8CC
:101D30000800012804D0FFE701208DF817005EE0BD
:101D40000499022081F83F00049981F84300FFE7DD
:101D500026E09DF80B0001280FD1FFE79DF80A004F
:101D600001280AD1FFE79DF80900012805D1FFE706
:101D70009DF80800012804D0FFE701208DF8170026
:101D80003DE00499022081F83E00049981F83F006B
:101D9000049981F84200049981F84300FFE7FFE7C6
:101DA000FFE70398019020B1FFE70198042807D0CE
:101DB0000DE0049800680021012201F075F914E09B
:101DC000049800680421012201F06EF90DE00498E6
:101DD000006800210122009201F066F9009A04983F
:101DE0000068042101F060F9FFE7049801680868C1
:101DF00040F00100086000208DF81700FFE79DF813
:101E0000170006B080BD000081B0009001B070479F
:101E100080B582B0019001980068006900F002016D
:101E20000020B0EB510F28D0FFE701980068C06890
:101E300000F002010020B0EB510F1DD0FFE7019828
:101E400001686FF00200086101990120087701988C
:101E500000688069800720B1FFE70198FFF7D4FF91
:101E600006E0019800F048F9019800F061FAFFE7F8
:101E7000019900200877FFE7FFE7019800680069F3
:101E800000F004010020B0EB910F29D0FFE701988A
:101E90000068C06800F004010020B0EB910F1ED074
:101EA000FFE7019801686FF00400086101990220C2
:101EB000087701980068806910F4407F04D0FFE73C
:101EC0000198FFF7A1FF06E0019800F015F90198CD
:101ED00000F02EFAFFE7019900200877FFE7FFE7FF
:101EE00001980068006900F008010020B0EBD10FF4
:101EF00028D0FFE701980068C06800F008010020C2
:101F0000B0EBD10F1DD0FFE7019801686FF008001A
:101F1000086101990420087701980068C06980076A
:101F200020B1FFE70198FFF76FFF06E0019800F08E
:101F3000E3F8019800F0FCF9FFE701990020087729
:101F4000FFE7FFE701980068006900F0100100203A
:101F5000B0EB111F29D0FFE701980068C06800F0BE
:101F600010010020B0EB111F1ED0FFE7019801689F
:101F70006FF0100008610199082008770198006847
:101F8000C06910F4407F04D0FFE70198FFF73CFFE1
:101F900006E0019800F0B0F8019800F0C9F9FFE7F9
:101FA000019900200877FFE7FFE7019800680069C2
:101FB000C00780B1FFE701980068C068C00748B15A
:101FC000FFE7019801686FF001000861019800F0D7
:101FD00099FAFFE7FFE7019800680069C1B20020A5
:101FE000B0EBD11F13D0FFE701980068C068C1B201
:101FF0000020B0EBD11F09D0FFE7019801686FF016
:10200000800008610198FFF7CDFBFFE7FFE701982B
:102010000068006900F040010020B0EB911F14D06F
:10202000FFE701980068C06800F040010020B0EBB5
:10203000911F09D0FFE7019801686FF04000086127
:10204000019800F079FAFFE7FFE70198006800695E
:1020500000F020010020B0EB511F14D0FFE70198E1
:102060000068C06800F020010020B0EB511F09D0CB
:10207000FFE7019801686FF0200008610198FFF701
:1020800095FBFFE7FFE702B080BD000080B588B098
:102090000790002006900590049003900290079806
:1020A00000680021C4F20101884223D1FFE7FFE765
:1020B0000020019043F63000C4F20200016841F0B4
:1020C00010010160006800F0100001900198FFE726
:1020D0004FF42060029002200390002004900590AD
:1020E0000120069041F20000C4F2020002A9FEF7AE
:1020F000C9F9FFE708B080BD81B0009001B070471A
:1021000080B586B004900391029200208DF80700FC
:10211000FFE7049890F83C00012804D1FFE7022073
:102120008DF8170089E00499012081F83C00FFE751
:10213000FFE7029800900C2800F270800099DFE819
:1021400001F0076D6D6D206D6D6D3A6D6D6D530015
:1021500004980068039900F0C3FF04980168886937
:1021600040F00800886104980168886920F0040044
:10217000886103980269049801688869104388613E
:1021800050E004980068039901F020F80498016871
:10219000886940F40060886104980168886920F4C7
:1021A000806088610398026904980168886940EA40
:1021B0000220886136E004980068039901F080F8F5
:1021C00004980168C86940F00800C8610498016873
:1021D000C86920F00400C861039802690498016886
:1021E000C8691043C8611DE004980068039901F0B4
:1021F000E1F804980168C86940F40060C861049877
:102200000168C86920F48060C86103980269049875
:102210000168C86940EA0220C86103E001208DF826
:102220000700FFE7FFE70499002081F83C00FFE783
:102230009DF807008DF81700FFE79DF8170006B01E
:1022400080BD000080B582B00090009820B9FFE703
:1022500001208DF807003FE0009890F83D0040B95C
:10226000FFE70099002081F83C00009800F038F862
:10227000FFE70099022081F83D00009951F8040B16
:1022800000F044FE0099012081F84600FFE7009924
:10229000012081F83E00009981F83F00009981F803
:1022A0004000009981F84100FFE7FFE70099012015
:1022B00081F84200009981F84300009981F84400B8
:1022C000009981F84500FFE70099012081F83D0061
:1022D00000208DF80700FFE79DF8070002B080BDE1
:1022E00080B584B00390039800680021C4F2010116
:1022F00088421BD1FFE7FFE70020029043F644002D
:10230000C4F20200016841F001010160006800F0C0
:10231000010002900298FFE7192001900022114667
:10232000FEF73CFB0198FEF72FFBFFE704B080BDF2
:1023300081B0009001B0704780B58CB00A900991CF
:10234000099828B9FFE70A9890F83E0007901CE02A
:102350000998042805D1FFE70A9890F83F000690F5
:1023600010E00998082805D1FFE70A9890F8400086
:10237000059004E00A9890F841000590FFE7059861
:102380000690FFE706980790FFE70798012804D01A
:10239000FFE701208DF82F00AFE0099828B9FFE78B
:1023A0000A99022081F83E001EE00998042806D10F
:1023B000FFE70A99022081F83F00049012E0099893
:1023C000082806D1FFE70A99022081F8400003900F
:1023D00005E00A99022081F841000390FFE7039885
:1023E0000490FFE70498FFE70A9800680999012222
:1023F000019200F059FE01980A9909680022C4F27E
:102400000102914202900CD0FFE70A9800684FF653
:102410000041CBF6FE710844B0FA80F0400902900A
:10242000FFE70298C00738B1FFE70A980168486CD7
:1024300040F400404864FFE70A9800680021C4F2B5
:10244000010188423CD0FFE70A980068B0F1804F54
:1024500036D0FFE70A98006840F20041C4F200015C
:1024600088422DD0FFE70A98006840F60001C4F2C8
:102470000001884224D0FFE70A98006840F6004136
:10248000C4F2000188421BD0FFE70A98006840F2BE
:102490000041C4F20101884212D0FFE70A980068A7
:1024A00044F20001C4F20101884209D0FFE70A9812
:1024B000006841F60001C4F20001884212D1FFE732
:1024C0000A980068806800F00700089008980628BD
:1024D00007D0FFE70A980168086840F0010008602B
:1024E000FFE706E00A980168086840F0010008600C
:1024F000FFE700208DF82F00FFE79DF82F000CB0BC
:1025000080BD000081B00090009800680021C4F2F6
:10251000010188420ED1FFE740F2B000C2F2000094
:10252000C1690120087040F2D001C2F20001C969FE
:102530000870FFE701B0704781B0009001B07047AC
:1025400080B582B00090009820B9FFE701208DF897
:1025500007003EE00098806908B1FFE700E0FFE770
:10256000009890F83D0040B9FFE70099002081F8FD
:102570003C00009800F032F8FFE70099242081F831
:102580003D0000980168C86820F40050C8600098B9
:1025900000F07CFF00980168086920F49040086111
:1025A00000980168486920F02A0048610098016895
:1025B000C86840F40050C860009900200864009A80
:1025C000202182F83D10009A82F83E108DF8070015
:1025D000FFE79DF8070002B080BD000080B588B01D
:1025E00007900020069005900490039002900798B1
:1025F000006841F20001C4F20101884234D1FFE7D2
:10260000FFE70020019043F64400C4F20200016895
:1026100041F010010160006800F010000190019885
:10262000FFE7FFE70020009043F63000C4F202000D
:10263000016841F001010160006800F001000090B4
:102640000098FFE74FF4C060029002200390002042
:10265000049003200590072006900020C4F2020099
:1026600002A9FDF70FFFFFE708B080BDFFE7FEE717
:1026700080B58EB040F2F840C2F200000A90FFF739
:1026800085F90A9B69464FF40050886141F20000C9
:10269000C4F20200079048614FF480520A61C8609A
:1026A0003C20089088600D200990486000200D9023
:1026B000086040F2B000C2F200000B9040F27001DE
:1026C000C2F2000140F24052C2F2000200F052FA9F
:1026D000DDF81CC0089A09980A9B69464FF4004E21
:1026E000C1F818E0C1F814C04FF4804EC1F810E0F2
:1026F000C1F80CC08A6048600420086040F2D00035
:10270000C2F200000C9040F29001C2F2000140F2CF
:102710008852C2F2000200F02DFA0B980D9900F0D9
:1027200079FA0C980D9900F075FA0EB080BD000092
:1027300080B58CB000200B900A900990089007900B
:10274000FFE70020069043F63000C4F20200016863
:1027500041F080010160006800F08000069006985A
:10276000FFE7FFE70020059043F63000C4F20200C7
:10277000016841F001010160006800F0010005906E
:102780000598FFE7FFE70020049043F63000C4F20D
:102790000200016841F010010160006800F01000C3
:1027A00004900498FFE7FFE70020039043F6300011
:1027B000C4F20200016841F008010160006800F005
:1027C000080003900398FFE741F20000C4F2020002
:1027D00002904FF47041009100220192FEF72EF812
:1027E000009A0199029807920122089209910A9190
:1027F00007A9FDF747FE0CB080BD000080B594B07E
:102800000021019113911291119110910F910E914C
:102810000D910C910B910A910991089107910691E4
:1028200005910491039140F2F840C2F20000029039
:102830000022C4F201020260A7224260816040F2DD
:10284000E732C260016141618161FFF7FBFC18B1B1
:10285000FFE7FDF7EDFDFFE700201290139040F237
:10286000F840C2F2000012A9FEF7FEFF18B1FFE720
:10287000FDF7DEFDFFE760200B9000220C920D9229
:102880000E920F921092119240F2F840C2F20000A4
:102890000BA9FFF735FC18B1FFE7FDF7C9FDFFE70E
:1028A00040F2F840C2F200000BA90422FFF728FC16
:1028B00018B1FFE7FDF7BCFDFFE70020039004908F
:1028C0000590069007904FF4005108910A9040F24D
:1028D000F840C2F2000003A9FEF76CFF18B1FFE751
:1028E000FDF7A6FDFFE740F2F840C2F20000FFF757
:1028F000CDFB14B080BD000080B58EB005A801905E
:102900002421FDF72DFD01990023029304930393E5
:1029100040F24050C2F2000040F20042C4F2000215
:102920000260436083604FF6FF72C26003618022E1
:1029300082610322059206934FF0010CCDF81CC072
:102940000893062209920A93CDF82CC00C930D929D
:10295000FFF798F818B1FFE7FDF76AFDFFE70020E1
:102960000390049040F24050C2F2000003A9FEF729
:102970007BFF18B1FFE7FDF75BFDFFE70EB080BD01
:1029800080B58EB005A801902421FDF7E9FC0199DE
:10299000002302930493039340F28850C2F2000094
:1029A00040F60002C4F200020260436083604FF60A
:1029B000FF72C26003618022826103220592069346
:1029C0004FF0010CCDF81CC00893062209920A931F
:1029D000CDF82CC00C930D92FFF754F818B1FFE717
:1029E000FDF726FDFFE700200390049040F2885099
:1029F000C2F2000003A9FEF737FF18B1FFE7FDF7A9
:102A000017FDFFE70EB080BD80B582B040F2D05018
:102A1000C2F20000019041F20001C4F20101016024
:102A20004FF4E131416000218160C16001610C22FD
:102A300042618161C161FFF783FD18B1FFE7FDF7D6
:102A4000F7FCFFE702B080BD80B582B040F2F00035
:102A5000C2F2000001904FF0A041016004214160EA
:102A60000222C260002101618261C1610162416292
:102A7000C1620163FDF7B4FF18B1FFE7FDF7D8FCB1
:102A8000FFE702B080BD0000FFE7FEE780B582B03F
:102A900001900198C0690078002865D0FFE701988F
:102AA000C069C0690068406A0199C9694860FDF75A
:102AB000DDFE0199C96908610198C16948688A68A1
:102AC000801AC8600198C069C068B0F5004F08DD81
:102AD000FFE70198C169C8684FF6FF72801AC860A5
:102AE0000FE00198C069C06810F5004F08DAFFE7F1
:102AF0000198C169C8684FF6FF721044C860FFE7CB
:102B0000FFE70198C26992ED030AB8EEC00A9FED93
:102B1000171A20EE010A9FED161A20EE010AB1EEF7
:102B2000001A80EE010A117E0379594301EE101A52
:102B3000B8EEC11A80EE010A11695269891A01EED4
:102B4000101AB8EE411A80EE010A80ED000A0198D1
:102B5000C169486888600198C1690869486101983D
:102B6000C16900200870FFE702B080BD00007A4410
:102B70000000704270B586B09C4696460C460546ED
:102B800010980F990E990D9A0C9A0B9B0A9E059519
:102B90000494CDF80CE0CDF808C08DF807308DF81E
:102BA0000620ADF80410ADF8020004980599C8613C
:102BB00003980599C969C8619DF807000599C96915
:102BC00008760598C1690020087002980599486147
:102BD0000A98059988619DF80600059908710D9875
:102BE00005998860BDF80400059908820F98059939
:102BF000C860BDF80200059948820598C069C0699F
:102C00003C21FFF759F8059948698969FFF794FB5A
:102C100006B070BD80B588B00790ADF81A1007995E
:102C20008868098ABDF91A300022002BC8BF01222A
:102C3000FDF704FE0799C868498ABDF91A20D20F2A
:102C4000FDF7FCFD0798806998B9FFE7BDF91A0008
:102C500018B9FFE70020059005E0BDF91A00FDF75F
:102C60007BFB0590FFE70598079949690968486368
:102C70004AE007988069042814D1FFE7BDF91A00DB
:102C800018B9FFE70020049005E0BDF91A00FDF730
:102C900063FB0490FFE70498079949690968886312
:102CA00003902FE007988069082814D1FFE7BDF949
:102CB0001A0018B9FFE70020029005E0BDF91A00DC
:102CC000FDF74AFB0290FFE70298079949690968F6
:102CD000C863019013E0BDF91A0018B9FFE700209E
:102CE000009005E0BDF91A00FDF736FB0090FFE704
:102CF000009807994969096808640190FFE70198FD
:102D00000390FFE70398FFE708B080BDFFE7FEE709
:102D100088B0079006910592079800F0070004908C
:102D20000498C0F10700052803D3FFE704200190B1
:102D300004E00498C0F107000190FFE701980390B8
:102D400004980430062803D8FFE70020009003E031
:102D5000049803380090FFE70098029006980399C2
:102D6000012202FA01F101390840029B98400599BD
:102D70009A40013A1140084308B07047704700007C
:102D800080B540F2B000C2F20000C06900780128AE
:102D900007D1FFE740F2B000C2F20000FFF776FE75
:102DA000FFE740F2D000C2F20000C06900780128BD
:102DB00007D1FFE740F2D000C2F20000FFF766FE45
:102DC000FFE700F049FB80BD7047000080B582B08E
:102DD000009000980138B0F1807F03D3FFE7012015
:102DE000019019E0009801384EF21401CEF2000172
:102DF00008604FF0FF300F2100F022FF4EF2180163
:102E0000CEF20001002008604EF21002CEF2000265
:102E1000072111600190FFE7019802B080BD00001A
:102E200080B5FDF729FD80BD80B594B008A830219C
:102E3000FDF796FA00200790069005900490039005
:102E4000FFE70020029043F64000C4F20200016850
:102E500041F080510160006800F0805002900298BB
:102E6000FFE7FFE70020019047F20000C4F20000F6
:102E7000016841F480410160006800F480400190E5
:102E80000198FFE7012008904FF48030099002205C
:102E90000E904FF480010F91192110914FF4A871F9
:102EA000119112900720139008A8FEF713F918B19A
:102EB000FFE7FDF7BDFAFFE70F2003900220049023
:102EC000002005904FF4A05006904FF480500790DA
:102ED00003A80521FDF72EFF18B1FFE7FDF7A8FABB
:102EE000FFE714B080BD00004EF68851CEF200011D
:102EF000086840F4700008607047000080B540F238
:102F0000F840C2F20000FEF783FF80BD83B002905C
:102F1000019102980068009002980021C4F201011A
:102F2000884225D0FFE70298B0F1804F20D0FFE71C
:102F3000029840F20041C4F20001884218D0FFE735
:102F4000029840F60001C4F20001884210D0FFE769
:102F5000029840F60041C4F20001884208D0FFE721
:102F6000029840F20041C4F2010188420AD1FFE711
:102F7000009820F070000090019841680098084384
:102F80000090FFE702980021C4F20101884255D069
:102F9000FFE70298B0F1804F50D0FFE7029840F26F
:102FA0000041C4F20001884248D0FFE7029840F691
:102FB0000001C4F20001884240D0FFE7029840F6C9
:102FC0000041C4F20001884238D0FFE7029840F285
:102FD0000041C4F20101884230D0FFE7029844F278
:102FE0000001C4F20101884228D0FFE7029844F2B0
:102FF0000041C4F20101884220D0FFE7029844F664
:103000000001C4F20101884218D0FFE7029841F69E
:103010000001C4F20001884210D0FFE7029841F697
:103020000041C4F20001884208D0FFE7029842F252
:103030000001C4F2000188420AD1FFE7009820F4A1
:10304000407000900198C168009808430090FFE725
:10305000009820F080000199496908430090009889
:1030600002990860019880680299C8620198006816
:103070000299886202980021C4F20101884208D0B6
:10308000FFE7029840F20041C4F20101884205D1F5
:10309000FFE70198006902990863FFE702990120A0
:1030A000486103B07047000084B003900291019220
:1030B000029800F01F01012088400090009A0399B7
:1030C000086A904308620198029901F01F0100FA12
:1030D00001F20399086A1043086204B070470000C7
:1030E00085B0049003910499086A20F001000862F9
:1030F0000498006A019004984068009004988069E0
:103100000290029820F070000290029820F00300D4
:10311000029003980168029808430290019820F0F9
:103120000200019003988168019808430190049877
:103130000021C4F20101884208D0FFE7049840F260
:103140000041C4F2010188420ED1FFE7019820F04E
:10315000080001900398C168019808430190019804
:1031600020F004000190FFE704980021C4F201015F
:10317000884208D0FFE7049840F20041C4F2010100
:10318000884213D1FFE7009820F4807000900098E7
:1031900020F4007000900398416900980843009063
:1031A00003988169009808430090FFE7009804990C
:1031B00048600298049988610398406804994863BC
:1031C00001980499086205B07047000085B004902A
:1031D00003910499086A20F0100008620498006ABC
:1031E00001900498406800900498806902900298C9
:1031F00020F4E0400290029820F44070029003987E
:103200000168029840EA01200290019820F0200015
:10321000019003988168019840EA01100190049898
:103220000021C4F20101884208D0FFE7049840F26F
:103230000041C4F2010188420FD1FFE7019820F05C
:10324000800001900398C168019840EA0110019044
:10325000019820F040000190FFE704980021C4F29B
:103260000101884208D0FFE7049840F20041C4F20F
:103270000101884215D1FFE7009820F4806000909A
:10328000009820F40060009003984169009840EA9B
:103290008100009003988169009840EA81000090C5
:1032A000FFE70098049948600298049988610398A0
:1032B00040680499886301980499086205B07047D2
:1032C00085B0049003910499086A20F48070086224
:1032D0000498006A01900498406800900498C069BE
:1032E0000290029820F070000290029820F00300F3
:1032F000029003980168029808430290019820F414
:103300000070019003988168019840EA01200190C3
:1033100004980021C4F20101884208D0FFE7049814
:1033200040F20041C4F2010188420FD1FFE7019849
:1033300020F4006001900398C168019840EA0120E0
:103340000190019820F480600190FFE7049800212B
:10335000C4F20101884208D0FFE7049840F200411E
:10336000C4F20101884215D1FFE7009820F4805093
:103370000090009820F40050009003984169009854
:1033800040EA0110009003988169009840EA01101A
:103390000090FFE700980499486002980499C8617A
:1033A000039840680499C86301980499086205B0BD
:1033B0007047000085B0049003910499086A20F4D6
:1033C000805008620498006A019004984068009058
:1033D0000498C0690290029820F4E040029002989C
:1033E00020F44070029003980168029840EA01209E
:1033F0000290019820F40050019003988168019890
:1034000040EA0130019004980021C4F20101884291
:1034100008D0FFE7049840F20041C4F2010188425D
:103420000BD1FFE7009820F4804000900398416999
:10343000009840EA81100090FFE7009804994860E6
:1034400002980499C8610398406804990864019837
:103450000499086205B0704780B582B040F21460EC
:10346000C2F200000190B0F9001040F2B000C2F2C8
:103470000000FFF7CFFB0198B0F9001040F2D00038
:10348000C2F20000FFF7C6FB02B080BD80B586B077
:10349000059005980068006920F44050059A11686D
:1034A000D26810430861059988680B694A69C9693F
:1034B000184310430843049005980068C06849F217
:1034C0000C6188430499084305990968C860059808
:1034D0000068406920F44070059A116892691043B1
:1034E00048610598006841F20001C4F20101884278
:1034F00009D0FFE70598006841F20041C4F20101DC
:10350000884204D1FFE7FDF75FFD039003E0FDF77C
:1035100049FD0390FFE70598C069B0F5004F29D138
:10352000FFE703981921A0FB0101059A1368029394
:1035300053685A00DB0FFCF797FE0299864648F263
:103540001F53C5F2EB13AEFB0320420910014FF0ED
:10355000640C02FB1CEC322202EBCC02A2FB033215
:10356000F82303EA521300EB4300C2F34212104463
:10357000886026E003981921A0FB0101059A1368D1
:10358000019353689A009B0FFCF76EFE01998446E5
:1035900048F21F52C5F2EB12ACFB02304309642023
:1035A00003FB10CC322000EB0C10A0FB0202F02039
:1035B00000EA521000EB0310C2F34312104488607B
:1035C000FFE706B080BD00002DE9F04F91B00191FA
:1035D000DDF88CB0DDF888A0DDF88490DDF880801F
:1035E0001F9F1E9E1D9D1C9CDDF86CE0DDF868C0D1
:1035F00001990199CDF840B0CDF83CA0CDF83890B4
:10360000CDF834800C970B960A950994CDF820E0FC
:10361000CDF81CC0069305920491039009980128E7
:1036200022D1FFE70399886B20F4803088630399E7
:10363000C8684FF6BF72CFF6BD721040C8600399DC
:10364000C86820F44010C8601098012806D1FFE730
:103650000399C86840F48010C860FFE7039800F041
:1036600031F88DF80B0019E00399C86840F040006C
:10367000C860039800F026F88DF80B000D9830B95B
:10368000FFE70399886B40F48030886305E0039975
:10369000886B20F480308863FFE7FFE707980128F4
:1036A0000BD1FFE70399886840F006008860039912
:1036B000886840F020008860FFE79DF80B0011B09B
:1036C000BDE8F08F83B0019000200090FFE70098E4
:1036D0000130009040F64151C0F20301884204D30A
:1036E000FFE703208DF80B0027E0FFE70198006952
:1036F000C00F0028EBD0FFE7002000900199086977
:1037000040F001000861FFE700980130009040F6AA
:103710004151C0F20301884204D3FFE703208DF832
:103720000B000AE0FFE701980069C0070028EBD111
:10373000FFE700208DF80B00FFE79DF80B0003B0BA
:103740007047000082B00190019800900099D1F874
:10375000000E20F00300C1F8000E0099D1F8040813
:1037600040F00200C1F80408002002B070470000D9
:103770002DE9F04F93B00191DDF894B0DDF890A001
:10378000DDF88C90DDF88880219F209E1F9D1E9C77
:10379000DDF874E0DDF870C001990199CDF848B00A
:1037A000CDF844A0CDF84090CDF83C800E970D9612
:1037B0000C950B94CDF828E0CDF824C0089307921F
:1037C0000691059000208DF8130005990391029051
:1037D000FFE702980E280CD8FFE70598029900EB46
:1037E00081010020C1F80401FFE702980130029036
:1037F000EFE71098B8B9FFE70399D1F8040840F053
:103800000200C1F804080599886B40F40010886331
:103810000599886B20F4002088630599886B20F453
:10382000802088630AE00599886B20F40010886383
:103830000599886B40F400208863FFE70399002016
:10384000C1F8000E0399D1F80008C1F800080B98E0
:1038500001280ED1FFE7089828B9FFE70598002155
:1038600000F0BAF904E00598012100F0B5F9FFE78E
:1038700004E00598032100F0AFF9FFE70598102157
:1038800000F008F920B1FFE701208DF81300FFE7F1
:10389000059800F0D9F820B1FFE701208DF813005A
:1038A000FFE703990020C1F810080399C1F8140834
:1038B0000399C1F81C080290FFE702980699884214
:1038C0003BD2FFE70398029900EB4110D0F80009C2
:1038D000C00FB0B1FFE7029848B9FFE7039802991B
:1038E00000EB41114FF00060C1F8000908E00398B7
:1038F000029900EB41114FF09040C1F80009FFE739
:1039000007E00398029900EB41110020C1F800097B
:10391000FFE70398029900EB41110020C1F810095C
:103920000398029900EB41114FF67F30C1F8080966
:10393000FFE7029801300290BFE700200290FFE706
:103940000298069988423BD2FFE70398029900EB60
:103950004110D0F8000BC00FB0B1FFE7029848B992
:10396000FFE70398029900EB41114FF00060C1F8A6
:10397000000B08E00398029900EB41114FF09040D2
:10398000C1F8000BFFE707E00398029900EB411133
:103990000020C1F8000BFFE70398029900EB4111EA
:1039A0000020C1F8100B0398029900EB41114FF66B
:1039B0007F30C1F8080BFFE7029801300290BFE7A3
:1039C0000399D1F8100820F48070C1F81008059907
:1039D0000020886105996FF080404861099830B9EE
:1039E000FFE70599886940F010008861FFE70599B5
:1039F000886943F60002C8F23C02104388610C98C3
:103A000030B1FFE70599886940F008008861FFE759
:103A10001098012808D1FFE7059988690422C4F2AB
:103A2000000210438861FFE79DF8130013B0BDE862
:103A3000F08F000081B000900099886820F00100AC
:103A40008860002001B0704783B001900020009092
:103A5000019910200861FFE700980130009040F6BE
:103A60004151C0F20301884204D3FFE703208DF8DF
:103A70000B000BE0FFE70198006900F01000102830
:103A8000EAD0FFE700208DF80B00FFE79DF80B0060
:103A900003B0704784B0029001910020009001981B
:103AA0008001203002990861FFE700980130009002
:103AB00040F64151C0F20301884204D3FFE70320DE
:103AC0008DF80F000BE0FFE70298006900F020007E
:103AD0002028EAD0FFE700208DF80F00FFE79DF8CF
:103AE0000F0004B07047000081B00090009840695A
:103AF00000F0010001B0704780B586B004908DF8E9
:103B00000F10002002900499C86820F0C040C860DF
:103B10009DF80F00012823D1FFE70499C86840F001
:103B20000050C860FFE70120FCF78AFC02980130D2
:103B30000290FFE70498FFF7D7FF01460020012914
:103B4000019007D0FFE702990020322938BF0120F9
:103B50000190FFE70198C0070028E4D1FFE72AE0C1
:103B60009DF80F0010BBFFE70499C86840F0804043
:103B7000C860FFE70120FCF763FC02980130029067
:103B8000FFE70498FFF7B0FF01460020009039B12D
:103B9000FFE702990020322938BF01200090FFE79B
:103BA0000098C0070028E5D1FFE703E001208DF869
:103BB00017000CE0FFE70298322804D1FFE701204C
:103BC0008DF8170003E000208DF81700FFE79DF83F
:103BD000170006B080BD000083B002908DF807107A
:103BE000029800909DF807200099D1F80008104332
:103BF000C1F80008002003B070470000FFE7FEE7AF
:103C000081B08DF803009DF9030000280ED4FFE772
:103C10009DF9031001F01F02012090404A094EF265
:103C20000011CEF2000141F82200FFE701B0704719
:103C30004EF60C50CEF200000068C0F30220704730
:103C400082B08DF8070000919DF9070000280AD482
:103C5000FFE7009800019DF907104EF20042CEF2F6
:103C6000000288540BE0009800019DF8071001F055
:103C70000F014EF61452CEF200028854FFE702B054
:103C80007047000083B00290029800F00700009097
:103C90004EF60C51CEF200010868019001984FF6E3
:103CA000FF02104001900198009A40EA0220002291
:103CB000C0F2FA52104301900198086003B07047B7
:103CC00080B582B000200190FCF7E4FDFFF7ACF86E
:103CD000FEF72EFDFEF792FDFEF70EFEFEF750FEFC
:103CE000FEF792FEFEF7B0FEFEF7C2FCFFE7FFF71D
:103CF00047F8FCE7F1EE100A4FF6FF71C0F2C03151
:103D000020EA010040F04070E1EE100A7047000028
:103D1000000000000000010203040607080900007B
:103D20000000010203040000483D000800000020DC
:103D300010000000C4010008583D000810000020D9
:103D4000100C0000E00100080024F4000100000055
:083D500010000000000000005B
:040000050800018965
:00000001FF
